:020000040000FA
:0600000002011A0225E5D1
:03002B00022D6142
:03003300022D3962
:0300530002265B27
:03006B00022CE084
:03007B00022D084B
:1000830002243BE5C754F84401F5C7790122000077
:100093000080FB120086B90003020104E479217891
:1000A30008B800028004F709D8FCE479297802B87B
:1000B30000028004F709D8FCE49002817881791466
:1000C3008002F0A3D8FCD9FA781A90014A7A01BACF
:1000D30000028007E493A3F608DAF97A017B16900D
:1000E300014B783079058015E493A3AD82AE838A02
:1000F300828B83F0A3AA82AB838D828E83D8E9D9C6
:10010300E775827F7583FF740312012C75829175E5
:100113008300740012012C75D00075813F7518811E
:10012300751902759F00020096C09FF59FE473D076
:100133009F22D083D082C09FE493C0E0740193C018
:10014300E0740293F59F2201FF0000B40000280031
:100153002800283075A000A000A000A0000008001F
:1001630008E001F000100010001000100010001053
:100173000050005000500010001000D00700000095
:100183000000000F0001000500307507001000019A
:100193000081FF00000000FFFFFF9C07BA07A207D2
:1001A300DE07FF02020208025000A0000000E8037D
:1001B30002778A010000528A02738A0100005C16EA
:1001C300026B8A010000BF0202738A0100005D1600
:1001D30002658A010000D50202738A0100005E16DF
:1001E30002638A010000D70202738A0100005F16CE
:1001F30002618A080000D80202738A0100006016B7
:10020300025F8A0100006116FF0100FF2002778A66
:100213000100004F8A02738A010000C516025D8A3D
:100223000000000000026D8A030000060317003E71
:100233000E3E0E3E0E3E0E3E0E3E0E3E0E3E0E3E5B
:100243000E3E0E3E0E3E0E3E0EF6100811F010123C
:10025300080802778A010000498A02738A010000B4
:10026300081710E1880100002507026D8A030000CA
:100273002B0702738A010000091710D188020000BE
:100283002D0702738A0100000A1710C188020000BB
:1002930035070202023132333435363738393031DB
:1002A300320002020202020202010D0000001001EC
:1002B30002778A010000468A02738A0100004B1705
:1002C300028D8A010000360702738A0100004C1771
:1002D300028B8A010000C28902738A0100004D1754
:1002E30002898A0100004E1702738A0100005C171D
:1002F30002878A0100004C8902738A0100005D179E
:1003030002858A010000CE8902738A0100005B170F
:1003130002838A010000018802738A0100005E17CC
:1003230002818A010000208802738A0100005F179E
:10033300027F8A0100006F8802718A0100008088B1
:1003430002738A0100006017027D8A0100000F8991
:1003530002738A0100006117027B8A0100006217A1
:1003630001E8030577100A0101480E1414141A1446
:10037300201426142C14321438143E1444144A1432
:10038300501456145C1462146814100C02778A011A
:1003930000004C8A02738A0100004418028A890211
:1003A30000004B0802718A0100002A8902738A0146
:1003B30000004318028C890200007308026D8A034F
:1003C30000009B0802718A010000528968FFFFFF49
:1003D3000001307503020106000000000000000068
:1003E300000000000000000000000000000000000A
:1003F30000000000FFFF0600800CE803037B034CB2
:10040300CD6C03AB0336567600680402CB47A202D9
:10041300180400058BC1010C0400000000037F06D3
:100423000CC92C979797038903264666006C022014
:100433000002400400000000024404000000000227
:10044300480400000000024C0400000000025004B5
:1004530000000000025404000000000258040000E1
:100463000000025C040000000002BC040000000065
:1004730001EC0400004000037F060CC92C979797FA
:100483000402030D355D040904872D353D00A301E6
:100493000000000001078601FE074105F120283016
:1004A30038077E01300746019A074704F1283038A0
:1004B300076C04F1283038021602000101B202FF72
:1004C300FF0190040923A135016A020600016008B7
:1004D3000000000000000000006004400000000174
:1004E30062020000006004004000000B0956756CB6
:1004F3007475726545676705122F013F01020A0093
:100503000201061BFF4C000215FDA50693A4E24F52
:10051300B1AFCFC6EB0764782527186A7FC5BB56F2
:10052300756C7475726545676700204E0000701125
:10053300010058022A00C2170000D417DA17104B23
:10054300657920507265737320537461746500027A
:10055300778A010000358902738A010000F71902C6
:100563005B8A000000FE15026D8A030000FF15027E
:10057300718A010000F81912013563E20312013593
:1005830076E203120135A7E203120135E1E2031219
:1005930001353AE30312013581E303120135C9E35F
:1005A30003120135F8E30312013527E40312013581
:1005B3005EE403120135A5E403120135BEE4031220
:1005C300013513E5031201352CE5031201357AE5F4
:1005D30003120135B4E5031201350080031201351E
:1005E3000381031201353C81031201355F8103123C
:1005F3000135718103120135AF81031201352B825D
:1006030003120135F38203120135158303120135F9
:10061300AC8303120135FE83031201352F840312C9
:1006230001353C8403120135A68403120135FD8490
:100633000312013500850312013539850312013593
:100643003C85031201354685031201359A85031251
:100653000135DB85031201350E86031201354B8606
:10066300031201354D8703120135F187031201355A
:100673005A88031201359888031201359ADA031256
:100683000135C2DA03120135EFDA0312013527DB34
:100693000312013585DB03120135D1DB031201356A
:1006A30038DC0312013578DC03120135B5DC0312A3
:1006B3000135E3DC031201358DDD0312013597DDCE
:1006C30003120135A4DD03120135D7DD0312013511
:1006D300E3DD03120135FBDD0312013505DE0312F1
:1006E3000135608D041201356E8D04120135868D3E
:1006F300041201359D8D04120135D5DD011201353A
:100703007FDE0112013592DF011201350EE0011285
:1007130001352CE10112013568E10112013503E2D3
:1007230001120135E7E201120135B3E3011201358C
:1007330041E501120135B2E5011201356CE6011202
:1007430001355EE7011201359EE70112013552E8DA
:100753000112013584E8011201357AEA01120135EB
:10076300BCEA01120135DAEA0112013540EB01124C
:1007730001350FEC01120135D3EC01120135F2EE14
:10078300011201358398031201356D990312013566
:10079300189A03120135699A03120135199B031242
:1007A30001358A9B031201356F9C03120135A39C0B
:1007B300031201359C9D03120135D99D03120135A6
:1007C300B59E03120135F49E03120135109F0312E7
:1007D3000135D6F9031201355AFA0312013585FAA8
:1007E300031201359FFB031201350EFC0212013582
:1007F30024FC0212013542FC0212013553FD0212A0
:1008030001355DFD0212013588FE021201357FFFBD
:1008130002120135ECFF0212013571B603120135E4
:10082300A1B703120135D8B70312013522B8031259
:100833000135E5B903120135C1B9011201354DBACC
:1008430001120135B1BB01120135BDBB01120135E6
:10085300F8BB0112013567BC0112013570BD0112ED
:10086300013579BE0112013540BF011201359DC02A
:1008730001120135BBC001120135D8C00112013587
:1008830085C10112013502C2011201352AC20112CA
:100893000135F4C401120135F9C40112013512C73F
:1008A3000112013560C701120135D0C701120135AC
:1008B3000EC801120135EAC801120135AAC9011295
:1008C3000135F6C901120135F9C9011201353DCAD5
:1008D3000112013585CA01120135C4CA011201355D
:1008E300E6CA011201351ACB011201357DCB011283
:1008F3000135B4BB03120135C2BB0312013515BC6C
:100903000312013534BC0312013579BC03120135DE
:10091300BDBD0312013558BE031201359CBE03123F
:100923000135C6BE0312013535BF031201357BBF46
:1009330003120135F2BF03120135A3C003120135BF
:10094300982D00120135A82D00120135492E0012F1
:100953000135A52E00120135622F001201357E30BC
:1009630000120135B03000120135DF3000120135BD
:100973008C32001201350335001201357337001232
:1009830001356538001201355E3900120135653BCA
:1009930000120135593E00120135883F001201351E
:1009A3008C41001201359C42001201352B44001288
:1009B30001351C45001201356A4500120135D94540
:1009C30000120135FD45001201354E460012013576
:1009D300EF4A00120135F04B00120135514C001261
:1009E30001357C4C00120135424D0012013591D284
:1009F300031201359BD203120135E0D203120135F4
:100A0300F4D20312013584D303120135BDD303128B
:100A13000135F8D30312013521D40312013575D4FE
:100A2300031201358AD403120135ACD40312013504
:100A3300C1D403120135D5D403120135EAD403120C
:100A4300013524D50312013550D503120135D7D50D
:100A5300031201351AD60312013544D603120135A8
:100A63006FD60312013561870412013535C10212B5
:100A7300013518C20212013593C202120135CEC2EA
:100A8300021201351FC402120135ADC40212013531
:100A93003FC702120135F1C702120135FDC8021228
:100AA300013570CA02120135C9CA02120135FFC9E4
:100AB3000312013542CA03120135C6CA03120135B6
:100AC3009DCD031201356AF5031201351CF603129D
:100AD300013518F70312013557F703120135B1F742
:100AE30003120135B1FD0312013514FE0312013562
:100AF300B1FE03120135E6FE0312013516FF0312A0
:100B0300013551FF0312013571FF03120135B5C0E1
:100B13000312013541C10312013500C2031201352D
:100B230018C30312013532C503120135A1AA0212FB
:100B33000135C6AA0212013593AB0212013567AC27
:100B430002120135D4AC0212013514AD0212013583
:100B5300B0AD02120135E4AE02120135BFAF02128D
:100B630001351EB002120135AAB00212013518B1C7
:100B730002120135A4B102120135EAB102120135A4
:100B83005CB202120135EEB2021201358FB30212CA
:100B93000135AFB302120135F7B30212013540B488
:100BA300021201355CB40212013582B4021201351E
:100BB300FCB4021201350AB50212013599B50212CD
:100BC300013502B60212013569C503120135EEC5BE
:100BD3000312013530C60312013514C70312013560
:100BE30081C703120135C5C70312013509C80312B2
:100BF300013536C8031201355EC80312013596C8A4
:100C030003120135D4C803120135FBC803120135A1
:100C130075C903120135BFC903120135FFEE011275
:100C230001359EF001120135D6F2011201352AF386
:100C33000112013555F30112013531F40112013569
:100C430061F40112013590F401120135A3F401128C
:100C53000135E4F40112013511F5011201355FF597
:100C6300011201359BF501120135E0F50112013541
:100C73002DF601120135A7F601120135E8F801122C
:100C83000135D2FA011201350EFB011201359DFC2B
:100C930001120135E2FC0112013555FD0112013546
:100CA300AAFD011201350EFE011201352DFF0112BD
:100CB30001353EFF0112013594DF021201350DE0CB
:100CC30002120135C7E502120135D2E602120135DF
:100CD3007BE80212013509E902120135A9A50112C7
:100CE30001352AA60112013557A601120135A0A626
:100CF30001120135A1A701120135FAA7011201352D
:100D030076A901120135F8A90112013513AA0112BE
:100D1300013584AA0112013541AB0112013504AC3E
:100D23000112013592AC0112013549AD01120135B1
:100D33005CAD01120135F5AD011201358CAE011226
:100D43000135B3AE011201351CAF0112013566AF97
:100D530001120135B4AF011201355BB00112013547
:100D6300F9B00112013586B101120135F7B1011253
:100D730001353EB20112013596B201120135C8B2F6
:100D83000112013589B3011201358CB40112013509
:100D9300D5B401120135F2B40112013511B50112B6
:100DA300013544B601120135FBB60112013520B7F6
:100DB3000112013535B701120135A5B7011201350D
:100DC300E6B7011201350AB9011201358BB90112D7
:100DD300013533E9021201357EE9021201358AE950
:100DE300021201355EEA0212013575EA021201357B
:100DF300B2EA02120135E3EA021201351BEB0212D9
:100E0300013571EB0212013587EB02120135C3EB99
:100E130002120135D6EB02120135FDEB0212013548
:100E230031EC0212013557ED02120135A1EE021227
:100E330001359DEF02120135B3F002120135F57F42
:100E4300001201358D8E02120135BC8E021201355E
:100E53000E92021201356593021201352494021297
:100E630001358B9702120135779802120135C99823
:100E730002120135E3980212013515990212013568
:100E8300209902120135299902120135DB990212C8
:100E93000135AB9A02120135F29A02120135589BC1
:100EA30002120135CA9B0212013555CC01120135DC
:100EB30095CF011201359BCF011201355AD601128C
:100EC30001357FDA011201351CE603120135B2E662
:100ED30003120135C8E60312013521E70312013578
:100EE30065E7031201359FE70312013537E8031263
:100EF3000135A6E803120135AFE803120135BBE85B
:100F030003120135D5E803120135FFE80312013559
:100F130014E90312013576E9031201359DE9031241
:100F230001354FCE031201355CCE0312013576CE67
:100F330003120135A9CE03120135E7CE03120135A1
:100F43004CCF0312013561CF031201356CCF03126D
:100F5300013579CF0312013590CF031201359ECFAE
:100F630003120135A9CF03120135B5CF03120135A1
:100F7300C4CF03120135CFCF03120135F2CF0312D1
:100F8300013596D003120135A6D003120135C0D026
:100F930003120135DDD003120135F8D003120135F8
:100FA3001DD10312013528D1031201353DD103129E
:100FB300013551D103120135B2D103120135B8D134
:100FC30003120135BED103120135C4D10312013519
:100FD300DCD1031201350FD2031201351E9D02121B
:100FE3000135B59D021201354D9E021201353D9F1B
:100FF30002120135749F02120135879F02120135D7
:10100300F59F0212013590A102120135B7A1021218
:10101300013559A2021201358EA2021201359FA297
:101023000212013518A30212013539A30212013548
:1010330051A302120135A9A402120135B2A602126C
:10104300013502A90212013505AA0212013554AA7B
:1010530002120135008002120135FD8002120135B2
:10106300E88102120135F281021201351482021263
:101073000135208202120135728302120135A183E8
:1010830002120135D1840212013513850212013592
:101093003F86021201351587021201356787021256
:1010A3000135C68702120135FD87021201353888E2
:1010B30002120135D38B02120135EC8B021201357A
:1010C3006E8C021201357C8C02120135D18C021216
:1010D3000135DF8C021201354C8D02120135BE8DB4
:1010E30002120135048E0212013525B602120135B2
:1010F30047B60212013531B802120135D6BB0212CE
:10110300013519BD02120135F3BD0212013500800C
:10111300041201352580041201359680041201352D
:10112300BE8803120135C78803120135D088031224
:101133000135018A03120135208C03120135568CC7
:1011430003120135908C03120135C68C031201354D
:10115300008D03120135348D03120135608D0312A6
:101163000135A98D03120135E38D031201352B8E51
:1011730003120135818E03120135B68E0312013538
:10118300118F031201354B8F031201359C8F03120C
:101193000135D28F031201350C90031201353A90B9
:1011A300031201355D90031201352D8E04120135B2
:1011B300598E04120135B48E04120135BE8E041209
:1011C3000135CE8E0412013597D603120135CED6E2
:1011D30003120135EBD603120135CFD703120135C4
:1011E30050D80312013527D9031201353BAB031243
:1011F300013562AB03120135C0AB0312013561FF48
:1012030001120135AE4D00120135BE5000120135F9
:10121300535200120135CE52001201357A53001297
:1012230001351D5400120135B55400120135E45443
:10123300001201357C59001201350E5A0012013596
:101243004A5B00120135B45B00120135685C001281
:1012530001351E5F00120135585F00120135C25F70
:10126300001201351F60001201357C600012013548
:10127300D96000120135C461001201350A620012FF
:101283000135556200120135786200120135BF63E2
:1012930000120135D3630012013542650012013596
:1012A300816500120135C165001201351466001213
:1012B3000135356600120135736600120135B168D8
:1012C30000120135F268001201358D6900120135F3
:1012D300FF6900120135406B001201359AA5031214
:1012E300013540A60312013585A7031201350EA867
:1012F30003120135FBA8031201353AA90312013584
:10130300A4A90312013512AA031201356B9004122A
:101313000135898904120135998904120135A78998
:10132300041201358A8A0412013535ED03120135A1
:10133300DDED031201351FF003120135958B041205
:101343000135CF8B04120135E38B04120135198C5F
:10135300041201352B8C04120135608C0412013503
:10136300B681041201350582041201353782041255
:101373000135C98204120135458304120135E6FFA4
:1013830001120135E9FF01120135DD7F001201353C
:10139300EF7F00120135F27F0012013557830412EB
:1013A3000135858304120135AA8304120135718442
:1013B30004120135758804120135C48804120135FD
:1013C300098904120135F87F001201353AF003123E
:1013D300013518F20312013584F203120135CFF2FD
:1013E30003120135D0F202120135FBF2021201356C
:1013F300FBF402120135FBF602120135AAF70212C1
:1014030001355CFB02120135C7FB02120135DCB06A
:101413000312013526B10312013576B103120135EA
:101423001CB203120135CAB203120135E9B2031229
:10143300013508B30312013536B30312013569B31D
:1014430003120135E0B30312013560B40312013511
:10145300FAB403120135AFB503120135E0B5031237
:10146300013510B6031201353EB603120135CBE93F
:101473000312013538EA0312013559EA0312013523
:1014830091EB03120135BBEC03120135D8EC0312C7
:10149300013572CB0212013596CB02120135BECB58
:1014A30002120135E6CB021201350ECC02120135D0
:1014B30032CC0212013556CC021201357ACC02121B
:1014C30001359ECC02120135D0CC02120135F4CC89
:1014D300021201351ECD02120135BACD02120135B9
:1014E300E0CD0212013506CE021201352BCE0212D7
:1014F300013550CE0212013575CE021201359BCE55
:1015030002120135C3CE0212013501CF0212013599
:101513002DCF0212013559CF021201357FCF0212AE
:101523000135B8CF02120135E0CF0212013519D0CF
:101533000212013541D0021201357AD0021201356F
:10154300A2D002120135C8D002120135EDD0021229
:1015530001352CD10212013550D1021201357AD155
:101563000212013549D202120135E1D302120135CB
:1015730031D40212013545D50212013564D5021268
:10158300013588D502120135CEFB03120135FFFB6D
:101593000312013529FC03120135EAFC031201355C
:1015A30048FD03120135EB9003120135009103123C
:1015B30001355C9103120135C791031201350F9276
:1015C30003120135819203120135AA9203120135E8
:1015D300B892031201351A9303120135589303127B
:1015E30001357393031201350E9403120135B79439
:1015F300031201353A950312013573950312013530
:10160300FE9503120135559603120135B396031265
:101613000135C59603120135EB9603120135F49695
:10162300031201354F9803120135DCF7031201351C
:1016330043F80312013500F9031201357EF9031251
:10164300013593DE03120135C6DE03120135F8DFDF
:10165300031201353CE00312013518E10312013591
:10166300278604120135058704120135D2F20312CD
:10167300013517F3031201355DF30312013526F526
:1016830003120135848C041201359F8C0412013539
:10169300AF8C04120135148D04120135D88E041257
:1016A3000135ACD50212013588D602120135CFD6E9
:1016B300021201350CD7021201357AD70212013515
:1016C300D4D70212013544D80212013514D90212BB
:1016D300013503DA021201357ADA0212013516DC1A
:1016E30002120135A3DC0212013516DD02120135A7
:1016F30092DD02120135A9DD02120135CEDE02129E
:10170300013528DF02120135719F03120135919FC4
:101713000312013597A003120135E3A0031201352B
:1017230003A10312013556A103120135C3A103120C
:10173300013509A2031201356DA20312013519A562
:1017430003120135746B00120135A17000120135CB
:10175300A47300120135CD7300120135E473001236
:1017630001350D7400120135BF7400120135A876DE
:1017730000120135F377001201350C7800120135A0
:10178300437D001201357C7D00120135C07D0012BE
:101793000135D17E00120135968A01120135C690BA
:1017A300011201358B9101120135B59301120135F7
:1017B300509A011201357B9A011201356F9B011278
:1017C3000135B19B011201357D9D01120135EF9D5C
:1017D30001120135C09E011201358D9F01120135A1
:1017E3001BA0011201352FA00112013572A30112B2
:1017F3000135E68404120135588504120135908AB7
:10180300041201353C8B04120135917F001201351E
:101813007B8F04120135F88F04120135C18F041236
:1018230001352490041201354D9004E066701008D0
:10183300A3E066700A08A3E066700408A3E06622CA
:10184300C3E7960809E7960809E7960809E7962289
:10185300C3E09608A3E09608A3E09608A3E09622C7
:10186300C008C3E096F50808A3E096420808A3E081
:1018730096420808A3E09645087001D3D0082208D1
:101883000808EAC0E0EBC0E086F0E7A4FA1809868E
:10189300F0E7A42AFA180986F0E7A42AFA180986B9
:1018A300F0E7A42AFA1986F0E7A4FBE5F02AFA196F
:1018B3000886F0E7A42BFBE5F03AFA190886F0E76F
:1018C300A42BFBE5F03AFA18180986F0E7A4C5F053
:1018D3002BFBE43AFA1908E7C5F0C6A426F6E5F0AF
:1018E3003BFBE43AFA1886F0E7A4F6E5F00826F69F
:1018F300E43B08F6E43A08F6D0E0FBD0E0FA22E451
:10190300CFC0E0E4CEC0E0E4CDC0E0E4CCC0E075FD
:10191300F020E626F608E633F608E633F608E63363
:10192300F6181818EC33FCED33FDEE33FEEF33FFFE
:10193300C3EC9709ED9709EE9709EF971919194029
:101943000FFFEC97FC09ED97FD09EE97FE191906B9
:10195300D5F0BFECF709EDF709EEF709EFF7191921
:1019630019D0E0FCD0E0FDD0E0FED0E0FF2260160D
:10197300080808C6C313C618C613C618C613C61864
:10198300C613C6D5E0EA22700908080822601618B3
:101993001818C6C333C608C633C608C633C608C636
:1019A30033C6D5E0EA22E627F60809E637F6080942
:1019B300E637F60809E637F622E026F608A3E0360E
:1019C300F608A3E036F608A3E036F622E026F00890
:1019D300A3E036F008A3E036F008A3E036F022C314
:1019E300E697F60809E697F60809E697F60809E682
:1019F30097F622C3E096F008A3E096F008A3E096DA
:101A0300F008A3E096F022E056F608A3E056F608A5
:101A1300A3E056F608A3E056F622E056F008A3E04A
:101A230056F008A3E056F008A3E056F022E647F686
:101A33000809E647F60809E647F60809E647F622E5
:101A4300E0F608A3E0F608A3E0F608A3E0F622E632
:101A5300F008A3E6F008A3E6F008A3E6F022E0FA14
:101A6300A3E0FBA3E0FCA3E0FD22EAF0A3EBF0A3D9
:101A7300ECF0A3EDF022E0F8A3E0F9A3E0FAA3E091
:101A8300FB22E8F0A3E9F0A3EAF0A3EBF022CAC03B
:101A9300E0E6F0A308DAFAD0E0FA22CAC0E0E0A355
:101AA300C582CCC582C583CDC583F0A3C582CCC511
:101AB30082C583CDC583DAE6D0E0CA22C3E498F8B1
:101AC300E499F9121B008026C3E49AFAE49BFBE92C
:101AD30020E7E9121B00E498F8E499F922C3E4989B
:101AE300F8E499F9121B00E498F8E499F9C3E49A2D
:101AF300FAE49BFB22EB20E7CFE920E7E0B90010F3
:101B0300BB0008E88AF084F8AAF022E4FBC8FA22B2
:101B1300EB70227B10C833C8C933C9335007C39A4B
:101B2300C3DBF280069A50012ADBEAC833F4C8C942
:101B330033F4C9FA2275F008E4C833C8C933C9338A
:101B4300C99AC99B5004C92AC93BD5F0ECFBC833D9
:101B5300F4C8E4C9FA22600D08C6A2E713C618C682
:101B630013C6D5E0F322600C08C6C313C618C61308
:101B7300C6D5E0F422700422600D18C6C333C6082C
:101B8300C633C6D5E0F41822251810AF08F518405F
:101B93000C15198008F51840021519D2AF2200C0A0
:101BA300D0251810AF08F518500C05198008F51842
:101BB30050020519D2AFD0D0222518F58210AF08F4
:101BC300F518400C15198008F51840021519D2AF05
:101BD300851983222518F582E43519F58322251802
:101BE300F8E43519F9222518FAE43519FB222518EA
:101BF300FCE43519FD22E4732518C582C0E0E5191C
:101C030034FFC583C0E0E518C3958224F810AF08FC
:101C13008583198582188008858319858218D2AF38
:101C2300CEF0A3E520F0A37808E608F0A3DEFAEFF0
:101C3300F0A3E58124FAF8E608F0A3E608F0A3E6AA
:101C430008F0A30808E608F0A3E608F0A315811539
:101C530081D0E0FED0E0F8158115811581E8C0E060
:101C6300EEC0E0222518C582C0E0E51934FFC58324
:101C7300C0E0E518C3958224F910AF088583198560
:101C830082188008858319858218D2AFCEF0A3E528
:101C930020F0A37808E608F0A3DEFAEFF0A3E581CD
:101CA30024FBF8E608F0A3E608F0A30808E608F02A
:101CB300A3E608F0A315811581D0E0FED0E0F81566
:101CC300811581E8C0E0EEC0E02285198385188282
:101CD300E0A3FEE0A3F5207808E0A3F608DFFAE02E
:101CE300A3FFE0A3C0E0E0A3C0E0E0A3C0E0E0A363
:101CF300C0E0E0A3C0E010AF088582188583198097
:101D030008858218858319D2AFD083D0820201322D
:101D1300851983851882E0A3FEE0A3F5207808E007
:101D2300A3F608DFFAE0A3FFE0A3C0E0E0A3C0E06E
:101D3300E0A3C0E0E0A3C0E010AF0885821885836C
:101D4300198008858218858319D2AFD083D0822267
:101D5300C0D02518C582C0E0E51934FFC583C0E0B3
:101D6300E518C3958224F310AF088583198582187B
:101D73008008858319858218D2AFC8F0A3E9F0A340
:101D8300EAF0A3EBF0A37908E709F0A3D8FAECF0A3
:101D9300A3EDF0A3EEF0A3EFF0A3D0E0F0A3D0E027
:101DA300F0A3D0E0F0A3E520F0A3E5F0F0A32285B3
:101DB3001983851882E0C0E0A3E0F9A3E0FAA3E069
:101DC300FBA37808E0F608A3DFFAE0FCA3E0FDA399
:101DD300E0FEA3E0FFA3E0C0E0A3E0C0E0A3E0F5E2
:101DE300D0A3E0F520A3E0A3F5F010AF0885831995
:101DF3008582188008858319858218D2AFD082D056
:101E030083D0E0F8D0E03274048006740280027458
:101E130001C0E0F404121BBCD0E0121A9122740436
:101E2300800474028000CCC0E0EDC0E0E518C39CE0
:101E3300CCAD1950011D10AF068C188D1980068C7E
:101E4300188D19D2AF121A9ED0E0FDD0E0FC22D03B
:101E530083D082E9C0E0E493A3C386F0C5F095F094
:101E6300F908E493A386F0C5F095F0700BE493A30F
:101E7300C3994005E9048002A3E475F002A4258216
:101E8300F582E5F03583F583D0E0F9E493A3C0E070
:101E9300E493C0E022D083D082ECC0E0EDC0E0E464
:101EA30093A3FCE493A3FDED4C600D121EE4EC241C
:101EB300FFFCED34FFFD80EFE493A3FCE493A3FD6B
:101EC300ED4C600D121F23EC24FFFCED34FFFD806D
:101ED300EFD0E0FDD0E0FCE493A3C0E0E493C0E0E6
:101EE30022C0E0C3E49396087401939618400FE46C
:101EF3009366700808740193661870007019A3A3A1
:101F0300C3E49396087401939618A3A3400DD0E0FD
:101F1300D0E0D0E0021ED4A3A3A3A3A3A3D0E022C6
:101F2300C0E0C0F088F0E49366700808740193661B
:101F3300187000A8F0A3A3700BD0F0D0E0D0E0D0CD
:0B1F4300E0021ED4A3A3D0F0D0E022E7
:101F500074F6121C67EAFEEBFF8C088D09EE243440
:101F6000F8E43FF9E8FCE9FDEE243512228AFAEEA6
:101F7000243712228AF88508F0A4C885F00A85095A
:101F8000F0A4250AF9EA28F8E439F97A257B001249
:101F90001B00EA8C828D83F0FA131313541FF8EEA2
:101FA00028F8E43FF9E8245DF582E439F583E0C0E0
:101FB000E074075AF8D0E0B800028004C313D8FCDC
:101FC000A2E0EE50082434F582E43F801824361253
:101FD000228AF5F0EA84A8F0EE28F8E43FF9E82434
:101FE00038F582E439F583E0F97F03021D1374F7B5
:101FF000121C67EAFEEBFFEE243412228AC0E0EEE8
:102000002435F582E43FF583D0E0F08E828F83A300
:10201000A3A3A3A3A3A3C082C0838E828F83A3A301
:10202000A3A3A31220F3D083D082E0C398F508A322
:10203000E099F509EE247F12228A6401705DEE2496
:10204000801220ED8E828F83A3A3A3A3A3A3A31248
:10205000242D8E828F83A3A3A3A3A3E0FAA3E0FB86
:10206000C3EA9CEB9D5010C3EC98ED99402DC3EA58
:1020700098EB995026800EC3EA98EB994007C3EC81
:1020800098ED9940167CB07D04EEFAEFFB120D7EC0
:10209000EE247FF582E43FF583E4F0AC08AD09EE71
:1020A000FAEFFB121F50E9F9122CD27F02021D1326
:1020B000C082C0838518828519831220F3C3EA9CED
:1020C000EB9D5010C3EC98ED99401BC3EA98EB9937
:1020D0005014800EC3EA98EB994007C3EC98ED9931
:1020E0004004790180027900D083D08222F582E415
:1020F0003FF583E0F8A3E0F922EAC39CFAEB9DFBED
:102100002274EF121C67900376E064086005E064B7
:1021100007702A9061C8E060249003A4E0F4601D79
:10212000E0F875F00AA4C8AAF02AF974A628FE748B
:102130000339FF8E828F83A3A3A3E0700302220FD3
:10214000906060E0C0E0EE2468F582E43FF583D063
:10215000E0F0750C20750D05750800750900E5D9CE
:1021600014F50AE5D95403F50E60127403650E6088
:1021700043E50A600AEE246712228A700280759095
:10218000051BE06401601F12228760047A0480024C
:102190007A00E50AC39AFA95E0FB120C2E8A088BA6
:1021A00009EA45097005120FBE8064122287700487
:1021B0008A0C8B0DE50A6012850C82850D83F50B68
:1021C000E5D9F0A3150BE50B70F612228760447475
:1021D000FC250AF50A780C121E0EAC0AA90EEEFABE
:1021E000EFFB120E387402121BA1E97026AA08AB8D
:1021F00009121630793D8E828F83A3A3A3A3E0FA40
:102200007B00120A90EEFAEFFB120DA2120E4A7931
:1022100000806F7403650E6051850A107511007897
:1022200010121E0EAC0CAD0DAA08AB09120DFC74F9
:1022300002121BA1EE246812228A64807004747F4B
:102240008001E0F50C780C121E12E50EF50C780CEE
:10225000121E12A90AAC08AD099003A4E0FA7B0093
:10226000120A667402121BA18013900376E06408C0
:10227000600BAC0CAD0DEEFAEFFB120EBC120FCAE8
:1022800079017F0A021D13EE2482F582E43FF58373
:10229000E02274F2121C6774FC121B8BEAFEEBFF47
:1022A0008909A2AFE433F508C2AF02234EE0601BF8
:1022B000780C121E0EAC0BA90EEEFAEFFB120E32CA
:1022C0007402121BA17404250BF50B7401250BF588
:1022D000D9850ED9E50B6018F50A850C82850D832A
:1022E000E0F5D9A385820C85830D150AE50A70EA0D
:1022F00075E195EE2463F8E43FF97A007B00A2AF24
:10230000E433F50BC2AF122429EC4D603288828988
:1023100083E0FAA3E0FB8A828B8312242D888289D2
:1023200083ECF0A3EDF08A828B83E4F0A3F0122417
:1023300029EC4D700A88828983A3A3E4F0A3F0E519
:102340000BA2E092AF1216309004B7E004F0EE2436
:10235000631220EDE8496064EE246312228A2402AD
:10236000F8A3E03400F988828983E5822402F50C21
:10237000E43583F50DE0F50BA3E0F50EEE246212D3
:10238000228A640170369061D0E0F81222876004DE
:102390007C0480027C007480C398FA95E0FBE50B16
:1023A0002CF8E43400F9E82402F8500109C3EA9853
:1023B000EB99A2D265D03340030222AD9004B7E07E
:1023C000604D9004B8E0F89004B7E0C398500C74E6
:1023D000026509703A9004B9E060348E828F83A35D
:1023E000A3A3A3E085188285198312241F74021207
:1023F0001BD7E812241F9004B6E028F07402121BC9
:10240000F1AA18AB197901120ABA9004B7E4F0E501
:1024100008A2E092AF7404121BA17F07021D13F003
:10242000A3E4F09004B7E0F82288828983E0FCA35B
:10243000E0FD22008521878522C622C0E074EB12D0
:102440001D53A2AFE433F508C2AF759B00906182C3
:10245000E0A2E05030E591A2E0502A7591FE7401AF
:10246000652170211225CE120F0A1225BC121E21E1
:10247000122A7C7404121BA1E9640170057901120F
:102480000F52122101906182E0A2E5505DE591A218
:10249000E550577591DF900376E064076005E064CE
:1024A00008702F1225CE74016521703E120F0A129A
:1024B00025BC121E21122A7C7404121BA1E964019E
:1024C00070057901120F527901EEFAEFFB12229298
:1024D0008018E0640D7013900398E004F064287095
:1024E00002E4F07A00E0F9120FD0906182E0A2E6F7
:1024F0004003022591E591A2E640030225917591E2
:10250000BF900376E064057008120EF2120EFE8092
:1025100003120EF8752100120F5EE9900377F0792F
:1025200000120F52120CEE7A017B00900375E0F955
:10253000121600907803E06442705690051FE01474
:10254000F0704EC2AF12254800782AD0E0F618D0BD
:10255000E0F6E59F5407F87005750DFF8003750DD3
:102560007FC4C0E07829E6F50A08E6550DF50B743E
:102570000B780A121B69D0E0250AF8906270E0A27D
:10258000E740F8E8C333906272F0906270E0D2E006
:10259000F0906181E0A2E35009E5E9A2E350037500
:1025A000E9F7A3E0A2E75009E591A2E7500375918E
:1025B0007FE508A2E092AF7F08021DB28E828F8372
:1025C000E0F8A3E0C82416F582E438F583229003EE
:1025D000A4E0F875F00AA4C8AAF02AF974A628FEA7
:1025E000740339FF22C0E0C0D0C082C083906183F1
:1025F000E0A2E05009E5BFA2E0500375BFFEE0A2F3
:10260000E15009E5BFA2E1500375BFFDE0A2E25031
:1026100009E5BFA2E2500375BFFBE0A2E35009E564
:10262000BFA2E3500375BFF7E0A2E45009E5BFA2E3
:10263000E4500375BFEFE0A2E55009E5BFA2E55005
:102640000375BFDFE0A2E65009E5BFA2E6500375BF
:10265000BFBFD083D082D0D0D0E032C0E074F212BD
:102660001D53E5A7A2E6500FE5A1A2E6500953A726
:10267000BF75A1BF1226AFE5A7A2E5500CE5A1A248
:10268000E5500653A7DF75A1DFE5A7A2E15009E5F4
:10269000A1A2E1500375A1FDE5A7A2E2500CE5A1BE
:1026A000A2E2500653A7FB75A1FB7F01021DB27485
:1026B000F7121C67752101900376E064067015120D
:1026C0000E6E8A828B83A3A3A3A3A3A3E0FAA3E045
:1026D000FB120EE0A2AFE433FED2AF90037CE064C5
:1026E0000170187A207B00900375E0F912172C7A9C
:1026F000207B00900375E0F9121606906182E0D20B
:10270000E6F090051CE0602185C622801690037BD0
:10271000E064017008E5C654F84405F5C653BEFCF4
:102720001224347401652160E4EEA2E092AF7F02CE
:10273000021D13008E238F24858228858327851808
:1027400082851983E0CEA3E0CF852882852783EB9D
:10275000C9EAC8EDCBECCA75F010C3E833C8E93359
:10276000C9EA33CAEB33CBC3EA9EF526EB9FF525C6
:10277000B35004AB25AA26EC33CCED33CDD5F0DA3B
:10278000AE23AF242274E9121C6774FA121B8BEA81
:10279000FEEBFF8C0A8D0B120F16EAF8EBF9ECFA40
:1027A000EDFB8E828F83121A85900376E024F7C3A7
:1027B000940550067514010228EC120E6E8A088BDF
:1027C00009EA450970030228E9EEFCEFFDAA18ABFF
:1027D00019120F10850882850983A3A3780C121A99
:1027E000439089D6780C121A0A8518828519837845
:1027F00010121A439089D67810121A0A780C7910A0
:10280000121843501F780C79101219E29089E2785F
:102810000C1218634047850C14850D15850E16851E
:102820000F1780459089E2851014851115851216C1
:102830008513177814790C1219E278141218635062
:102840001C7514007515007516007517017814793C
:10285000101219E27814790C1219A9800C75140160
:102860007515007516007517007409781412198A09
:102870009089DE780C121A437814790C12190285AB
:102880000882850983A3A3A3A3A3A312290A121B69
:1028900000880C890DE4F50EF50F7814790C1219E7
:1028A000A97404121BD712290A121B00E8FA8A0C19
:1028B000E4F50D7814790C12184350077814790C4C
:1028C0001219E2900376E06408600AE0640660058D
:1028D000E0640570209089CA78141218635016902D
:1028E00089BE78141219BC800C751400751500751A
:1028F0001600751700850A82850B837814121A5208
:102900007406121BA17F10021D13E0F8A3E0F97AF0
:10291000D07B032274F7121C67120F2890051AE06F
:1029200064017010906245E4F0A3F053F4F343FEA9
:102930000C5390F3120ECEE5C654B84441F5C6E5EB
:102940009E5447644170F8906185740FF0900518AB
:10295000E0F47002A3E0604E900519E06008146096
:102960001B14602E8040750801750900900518E061
:102970007808121B78E508F45280802A75080175E2
:102980000900900518E07808121B78E508F45290C9
:102990008014750801750900900518E07808121B6D
:1029A00078E508F452A079007F02021D1374F71233
:1029B0001C67E9FEEAFF120F2874016E700C7A8022
:1029C0007B00900375E0F9121600902D90E493F4CB
:1029D0006008E493F9120CE2800953C6B8E59E54EE
:1029E0004770FA120ED490051AE064017003120DBC
:1029F00000900518E0F47002A3E0604B900519E028
:102A0000600814601A14602C803D75080175090077
:102A1000900518E07808121B78E508428080287538
:102A20000801750900900518E07808121B78E50880
:102A300042908013750801750900900518E0780828
:102A4000121B78E50842A0120E6E8A088B09A808AE
:102A5000A909E8496014E5E170FCE82414F582E472
:102A600039F583E0F46003E0F5E174016F700A7AF0
:102A700001900375E0F91216900229A874F1121C56
:102A8000678A088B098C0A8D0B9089D67808121AF0
:102A90000A740F121BD7780C121A439089D6780C3F
:102AA000121A0A7808790C1218439089E2501078AB
:102AB00008790C1219E278081218634014800E7815
:102AC0000C79081219E2780C12186350047901800D
:102AD0000279007F08021D1374ED121C678A088BAF
:102AE000098C0A8D0B9089D67808121A0A74131271
:102AF0001BD7780C121A439089D6780C121A0A78D0
:102B00000C790812184340117808790C1219E2AABE
:102B100008AB09AC0AAD0B80227510007511007569
:102B200012007513017810790C1219E278107908E7
:102B30001219A9AA10AB11AC12AD137F0C021D1310
:102B40009089D67808121A438A828B837808121AE1
:102B50001D7F04021D1374F5121C678C828D83780F
:102B600008121A438A828B8378081219F6122BAE48
:102B7000C3E09CF0A3E09D122BA04022908A1A781B
:102B800008121A438A828B8378081219CF8A828BA3
:102B900083A3A3A3A3E02420F0A3E0344EF080A0FD
:102BA000F088828983C3E09420A3E0944E22EA2433
:102BB00004F8E43BF98C828D83A3A3A3A3E0FCA3D8
:102BC000E0FD888289832274F5121C67E9FE900477
:102BD000D2E0FAA3E0FBEE29F8E433F974F128F52A
:102BE00082748839F583E02AF508A3E03BF509787B
:102BF00008121E0E9089EA121A611227347402120A
:102C00001BA18A088B098C0A8D0B74107808121985
:102C100071AA08AB097F04021D1374F1121C678AA4
:102C20000C8B0D8C0E8D0F7411121BD7121E257478
:102C300011121BD7E02401F508A3E03400F509E4E4
:102C4000F50AF50B780C790812188290898E7808AD
:102C5000121A43780C7908121882AA0CAB0DAC0E2C
:102C6000AD0F1227347402121BA18B09EA450960CB
:102C7000047A0180027A00EC2AFCE43DFD74131210
:102C80001BD7E0F8A3E0F9E8FEE9FFECF8EDF97AEC
:102C9000717B02121B0088088909E4F50AF50B8E86
:102CA000828F837808121A52ECF8EDF97A717B0260
:102CB000121B008A088B0974057808121B788E8213
:102CC0008F83A3A3A3A3E508F0A3E509F07F08027F
:102CD0001D13C082C083E9906000F0D083D08222AF
:102CE000C0E074F2121D53A2AFE433FED2AFE58907
:102CF000A2E05003121384758900C2C5EEF8EEA25B
:102D0000E092AF7F01021DB2C0E074F2121D53A227
:102D1000AFE433FED2AFE58AA2E64006E58AA2E739
:102D20005003121384758A00758A00C2EBEEF8EE28
:102D3000A2E092AF7F01021DB2C0E0C0D0E8C0E0C7
:102D4000E9C0E0A2AFE433F8D2AF758B00C2E8E887
:102D5000F9E8A2E092AFD0E0F9D0E0F8D0D0D0E02E
:102D600032C0E0C0D0E8C0E0E9C0E0A2AFE433F890
:102D7000D2AFC2C7751A00E8F9E8A2E092AFD0E07E
:0F2D8000F9D0E0F8D0D0D0E032C2AF020000228C
:102D9000FFFFFFFFFFFFFFFFC082C083E99016C463
:102DA000F0D083D08202013274F6121BFBE990024C
:102DB000E8F0900348E0F5087509007402780812FD
:102DC0001B78AA08AB091216789002E912375B90BB
:102DD00002E9123B48606F900348E075F003A4FAE3
:102DE000ABF012167890030612375B900306123B85
:102DF00048700B9002E9123B1912167E804890032E
:102E000006124AAD7AFF7BFF1212DC7A0080198A23
:102E10000875090074027808121B7812455574FF72
:102E2000122F5BE4F0A3F00A900348E0F8EAC3989D
:102E300040DD79051209589002E8E0F91208447A59
:102E4000E27B09120BCE0245F874F4121BFB8A08D0
:102E50008B09EB548060479002E8E0F91215E88A8C
:102E60000A8B0BAE0AAF0BEE4F602A8E828F83E087
:102E700064B0701A12096AE960148E828F83A3A36A
:102E8000A3A3E0F9EE2405FAE43FFB12093AEEFAB7
:102E9000EFFB1215D6AA08E5096480FB80047A00CE
:102EA0007B000230AB74F2121BFB74FB121B8BEA2B
:102EB000FEEBFFEE4F60457403121BD7EEF0A3EF5D
:102EC000F0851882851983ECF0A3EDF07402121BD3
:102ED000D7E9F0AA18AB1912083EE9F50870757425
:102EE00013121BD7E0F50AA3E0F50BE50A450B60CA
:102EF000638E828F831234E4EE4F70057508028072
:102F0000537A067B001216788A0C8B0DA80CA90D3B
:102F1000E8497005750813803B88828983E4122F85
:102F20005BEEF0A3EF123077E50AF0A3E50BF0902B
:102F300002EC1230709002EC6017E0FCA3E080031A
:102F4000EAFCEBFD8C828D8312307070F38C828DE5
:102F500083124170A9087405024D2DF0A3124A8F07
:102F6000A32274F2121BFB8908890C750D007403EF
:102F7000780C121B78850C0A850D0B9002EBF090F3
:102F800002E9123F7B12306E602E12167E790080AD
:102F90001D890C750D007402780C121B789002E9E3
:102FA0001244148882F583A3A3E4F0A3F0099003EC
:102FB00048E0F8E9C39840D9900348E0FA850AF060
:102FC000A4CAA8F0850BF0A428FB1216788A0C8BF3
:102FD0000DAE0CAF0DEE4F7003023064900348E06D
:102FE000FC850AF0A4CCA8F0850BF0A428FD79009C
:102FF0001215C47C0080318D0C750D007403780CA3
:10300000121B788A828B8312306988828983E4F06C
:10301000123076A3A3F0A3F00DEDC3950840D8EECF
:10302000250AFEEF350BFF0C900348E0F8ECC3983F
:1030300050288C0C750D007402780C121B789002CD
:10304000E9123069E82402500109FAE9FB8A828B0F
:1030500083EEF0A3EFF07D0080BFE5089002EBF077
:10306000790080027913024D30124418F922A3A38B
:10307000123B1DEA4B22A3124A8FA3A3A32274F48E
:10308000121BFB7900EAA2E0501F750846750989FA
:103090007808121E0E79107C047D007AC67B161209
:1030A00009527402121BA1E9F980007F04021CCDB1
:1030B000C082C0839002EC123B48601C88828983E6
:1030C000A3A3E06A7003A3E06B8882898370E8A3FE
:1030D000A3A3A3123B1980047A007B00022DA174E4
:1030E000F2121BFB74FD121B8BEAFEEBFF851882AC
:1030F000851983E4F0A3F07402121BD77401F01257
:103100003B457014120B081216789002EF12375BD1
:10311000123B45700302327112385BEE2404F50A4B
:10312000E43FF50B850A82F583E024FE603C24FC35
:10313000607424FE607E24FE70030231C124FE70A0
:10314000030231CE24FE70030231DB24FE70030241
:1031500031E824FE70030231F524FC7003023216BC
:1031600024FE700302322E02326A120B089002F122
:10317000EAF0A3EB12327D120586E9600302326A9F
:103180009002F1121E258E828F83A3A3A3A3A31204
:103190004AAD850882850983123B191209227402FF
:1031A000121BA102326AAC18AD19EEFAEFFB12093C
:1031B00070023239AC18AD19EEFAEFFB12097680C5
:1031C00078AC18AD19EEFAEFFB12097C806BAC18E5
:1031D000AD19EEFAEFFB120982805EAC18AD19EE64
:1031E000FAEFFB1209888051AC18AD19EEFAEFFB2B
:1031F00012098E80447402121BE1880C890D780C30
:10320000121E0E7402121BF1EEFAEFFB12099474F7
:1032100002121BA18023AC18AD19EEFAEFFB1209C4
:103220009AE9F870167402121BD7E4F0803CAC18CF
:10323000AD19EEFAEFFB1209A0E9F8E8602C8E82D6
:103240008F83A3E064146022850A82850B83E0905B
:1032500002F1F0851882851983123B199002F2124F
:10326000375BE8A312327D120580EEFAEFFB1208FD
:10327000F87402121BD7E0F97403024D2DF07CF1B3
:103280007D02850882850983123B1D2274E8121B8A
:10329000FB74FA121B8B7404121BD7ECF0A3EDF035
:1032A0008A128B13EA2405F50EE43513F50FEA2490
:1032B00002F510E43513F511851082F583123B19E0
:1032C0001206768A0A8B0B7508007C037D00790054
:1032D0007AF17B021215C4E50E2402F516E4350FCF
:1032E000F5177402121BE1880C890D780C121E0E62
:1032F000850E82850F83A3A3A3A3E0F50C750D00B3
:10330000780C121E0EE50E2405F50CE4350FF50DB4
:10331000780C121E0E851682851783123E20120825
:103320005C7406121BA18A0C8B0DE50C450D700315
:103330000234AD8020851882851983E088828983D4
:10334000F00508851882851983A3E0C0E01234EEE9
:10335000D0E0F00508E50A24FBFAE50B34FFFBC3D7
:10336000E5089AE49B40030234AD7E007F0085129D
:1033700082851383A3A3A3A3E0F5097809121E1283
:10338000E4F514F5157814121E0E7514EE75150279
:103390007814121E0E9002EF121E257409121BD70C
:1033A000121E25E50A24F9F9AC0CAD0D85108285B5
:1033B0001183123B191209CA7409121BA1E9600397
:1033C00002344E850E82850F83A3A3A3A3A3A3A3D8
:1033D000E0F89002EEE0687075E0F5148E15781450
:1033E000121E0E124AAA850E82850F83A3A3A3A3E1
:1033F000A3A3A3A3123B191215BE7402121BA1E9C9
:10340000604C9002F2123B48703BE4F514781412C1
:103410001E0E7CFF7DFF7907851082851183123B8C
:10342000191209347402121BA1123B4E7017850E3B
:1034300082850F83124C477404121BD71245081261
:103440003E510234E1850C82850D831234E4A818C4
:10345000A919881489157814121E0E7404121BD72A
:10346000121E25851682851783123751120868743B
:1034700004121BA18A0C8B0DEE4F700302332A122B
:1034800034EEEE1234F9123E07EF1234F9F8A3E0ED
:103490003400F9E50C450D600302333588828983D9
:1034A00074FFF005081234EE74FFF00508E50860BB
:1034B0001A1313543F123761120592E96009900202
:1034C000F2123B1912163079008016850E82850F94
:1034D00083124C477404121BD712450812417079AD
:1034E0000A023DDAA3A3A3A3E0FEA3E0FF22A808FB
:1034F0009002F2E028123E0722F00508089002F23E
:10350000E0282274E8121BFB74FA121B8B7402125F
:103510001BD712375B7404121BD7ECF0A3EDF074C9
:1035200002121BD7E02405123DF0E0F50CA3E0F5F4
:103530000D7402121BD7E02402F510A3E03400F54D
:1035400011851082F583123B1912067675080075F5
:103550000900EA24FCFEEB34FFFF8008050CE50CB3
:103560007002050DA808C3EE98EF940050030237CF
:103570000DA818A919880E890F780E121E0E851431
:1035800082851583A3A3A3A3124AB1121E0EE514CC
:103590002405F50EE43515F50F780E121E0E851470
:1035A0008285158312374F12085C7406121BA18A9C
:1035B0000E8B0FEA450F700302370DEA2404F5164F
:1035C000E4350FF517851682F583E0F50CA3E0F5D9
:1035D0000D851882851983124AAD8A828B83A3A335
:1035E000A3E0F9851082851183123B1912084AE97C
:1035F000F509600302370D7402121BD7123E17F54E
:10360000097809121E12E4F512F5137812121E0E33
:103610007512EE7513027812121E0E9002EF121E32
:10362000257407121BD7121E25EEF9AC0EAD0F85BF
:103630001082851183123B191209CA7409121BA149
:10364000E9F509600302370DE508703FE4F50EF572
:103650000F780E121E0E7CFF7DFF79098510828582
:103660001183123B191209347402121BA1123E3D40
:10367000700D7404121BD712374479110237419030
:1036800002EEE024029002F2F080149002F2E0FADE
:103690009002EEE0790024025001096A497072A894
:1036A000089002EEE0FAE82AFAE43400FBEE9AEF22
:1036B0009B405A851682851783E0C0E09002F31282
:1036C00034F3D0E0F00508851682851783A3E0C0A7
:1036D000E0089002F31234F3D0E0F005089002EE17
:1036E000124AB1121E0E124AAAA808123DE412157F
:1036F000AC7402121BA19002EEE02508F50874FFDD
:10370000650C700474FF650D600302355CE50860AC
:103710001F9002F2E0F5F0E5088412376112059877
:10372000E960099002F3123B1912163079008011FA
:10373000E509700375090A7404121BD7123744A9EE
:1037400009023DDA123F7FE50CF0A3E50DF022A35C
:10375000A3124D3CAA0CAB0D22A3A3EAF0A3EBF0FD
:10376000229002F1F07CF17D028510828511831296
:103770003B1D2274EC121BFB74FC121B8B1242804B
:103780007402121BF1123B131208628A0C8B0DEAB1
:10379000450D700302384B12385BA818A919881020
:1037A00089117810121E0E7CFF7DFF790B8508822F
:1037B000850983123B191209347402121BA11239B4
:1037C00051700C850A82850B83123E4E0238588E4A
:1037D000828F83A3A3A3A3E0F5127812121E12E432
:1037E000F512F5137812121E0E7512F17513027888
:1037F00012121E0E7810121E0E7409121BD7121E02
:10380000257409121BD7E0F9AC0CAD0D8508828533
:103810000983123B191209CA7409121BA1E9FE702F
:10382000157CF17D02850882850983123B191205FA
:103830009EE97009802074166E70027E009002F27C
:10384000123B19121630EE7004800B7E01850A823D
:10385000850B8312416DEEF9024182EE2402F508D8
:10386000E43FF5092274EC121BFB74FC121B8BEA7B
:10387000FEEBFF8C0E8D0FEE2405F508E43FF509F5
:103880007402121BF1850882850983123B19120804
:10389000628A0C8B0DEA450D7003023941EE240259
:1038A000F50AE43FF50BA818A919881089117810BA
:1038B000121E0E7CFF7DFF790D123B13120934742A
:1038C00002121BA1123951700B85088285098312DF
:1038D0003E4E807A8E828F83A3A3A3A3E0F5127855
:1038E00012121E12850882850983A3A3121E257554
:1038F00012F17513027812121E0E7810121E0E7439
:1039000009121BD7121E257409121BD7E0F9123BAE
:103910000F1209CA7409121BA1E9FE700F7CF17D18
:1039200002123B131205A4E97009802074166E7010
:10393000027E009002F2123B19121630EE700480E3
:103940000B7E0185088285098312416DEEF90241E3
:1039500082123B58F510A3E0F511EA45112274E8F4
:10396000121BFB74FE121B8B8A168B178C148D1581
:10397000EA2405F50CE43517F50DEA2402F50EE40A
:103980003517F50F850E82F583123B191206768ADC
:10399000088B09750B007C037D0079007AF17B02AE
:1039A0001215C4750A00E50814F5100424FFF50883
:1039B000E50934FFF50980549002F1E0FA9002EE37
:1039C000E0F8EA28F8E43400F9E50898E5099950A8
:1039D0000D9002F1E0F8E510C3989002EEF0E0F5EA
:1039E000127513007812121E0E124AAA9002F2E00B
:1039F0002AFAA3E03400FB1215AC7402121BA1904A
:103A000002EEE0F89002F1E028F0050A850C8285CC
:103A10000D83A3A31244244003023AF49002F1E080
:103A2000C39508E495094003023AF4AE0AEE2EFE6F
:103A3000E433FF123B33AC18AD19124AC5E439FB2D
:103A40001208628A128B13AC12AD13EC4D701B7509
:103A50000B01123B231241719002F212307060038D
:103A6000121630A90B7402023DDC8516828517837D
:103A7000A3A3A3A3E0F50B780B121E12E4F512F535
:103A8000137812121E0E7512EE7513027812121EA2
:103A90000E9002EF121E257407121BD7121E25A9C5
:103AA00010850E82850F83123B191209CA74091200
:103AB0001BA1E9F50B709B9002F2123B48600302D8
:103AC00039B8E4F512F5137812121E0E7CFF7DFF53
:103AD000790F850E82850F83123B19120934740207
:103AE000121BA1123B4E60030239B8123B23123E57
:103AF00052023A657CF17D02850E82850F83123B6E
:103B0000191205AAE96003023A587900023A65AC35
:103B10000CAD0D850A82850B83123B1D22E0FAA3B2
:103B2000E0FB22123B33E0FAA3E0F9EA8514828538
:103B3000158322850C82850D83E02EF8A3E03FF9E2
:103B400088828983229002EF124C4BE84922123B73
:103B500058F8A3E0F9E849229002F2EAF0A3EBF06A
:103B60009002F2E02274E8121BFB74FA121B8B74B1
:103B700004121BD712375B8C168D177404121BD7D7
:103B8000E02405F50EA3E03400F50F7404121BD7F2
:103B9000E02402123DF0123B191206768A0A8B0BC2
:103BA0007F007E00A818A919880889097808121EC4
:103BB0000E850E82850F83A3A3A3A3E0F5088E09CB
:103BC0007808121E0EE50E2405F508E4350FF509F8
:103BD0007808121E0E850E82850F83A3A3123E2045
:103BE00012085C7406121BA18A0C8B0D8029123EF0
:103BF00011F00F123E11F00F9002EE12415C121EF6
:103C00000E124AAAEFF8123DE41215AC7402121B10
:103C1000A19002EEE02FFFE50C450D7003023CA0E1
:103C2000851882851983124292A3A3A3E0F9851413
:103C300082851583123B1912084AE9FEE50C24041B
:103C4000F510E4350DF511EE70507404121BD71207
:103C50003E17F5087808121E12E4F508F5097808F1
:103C6000121E0E7508EE7509027808121E0E9002DB
:103C7000EF121E257407121BD7121E25E50A24FA1F
:103C8000F9AC0CAD0D851482851583123B19120910
:103C9000CA7409121BA1E9FE6039123E2D1241704F
:103CA000EF7003023DC79002F2E0F5F0EF8490025E
:103CB000F1F07CF17D02851482851583123B191287
:103CC00005B0E960099002F3123B19121630790031
:103CD000023DDA8F08EF703BE4F512F5137812120B
:103CE0001E0E7CFF7DFF7911851482851583123BA2
:103CF000191209347402121BA1123E3D7009123EC2
:103D00002D123E51023DDA9002EEE024049002F2C0
:103D1000F080359002EEE0F89002F2E0FAE8240438
:103D2000FCE43400FDEC6A4D6003023CA6E50A2485
:103D3000FAFAE50B34FFFBE50828F8E43400F9EA69
:103D400098EB995003023CA6851082851183E0C050
:103D5000E09002F3E02FF8A3E034008882F583D0EE
:103D6000E0F00F851082851183A3E0C0E0123DFED4
:103D7000D0E0F00F7402121BE1880889097808125C
:103D80001E0E7402121BD7121E25850E82850F830C
:103D900012374F1208687404121BA18A0C8B0DEAAB
:103DA000450D7003023BEE7402121BD7E0C0E01217
:103DB0003DFED0E0F00F7402121BD7A3E0C0E0126A
:103DC0003DFED0E0023BF6EE70027E0A850E828553
:103DD0000F83123E33124170EEF97406121BA17F5D
:103DE00010021CCD9002F3E028FAA3E03400FB227D
:103DF000F514A3E03400F515851482F58322123EF4
:103E000002229002F3E02FFAA3E034008A82F583C5
:103E100022123E0274FF22123F7FA3A3A3A3E0223B
:103E2000124D3C850E82850F83123B1D2285108228
:103E3000851183124C4B851682851783229002F3DD
:103E4000EAF0A3EBF09002F3124C4BE84922124146
:103E500076E8F0A3E9F079112274EA121BFB74FEF4
:103E6000121B8B8A088B098C128D13EA2405FEE441
:103E70003509FFAC18AD198E828F83123B191208D9
:103E8000628A0C8B0DEE2406F50EE43FF50FEA4531
:103E90000D7003023F51E5082402F50AE43509F5E7
:103EA0000B8A828B83A3A3A3E0A2E5502885188206
:103EB000851983123B191209BE8A108B11EA45112C
:103EC00060207912123B0F851082851183121BF935
:103ED000E9F50C707F850E82850F83E060097952C9
:103EE0008011750C0E806D850882850983A3A3A3BC
:103EF000A3E0F9E4F508F5097808121E0E8E828F0A
:103F000083A3A3E0F5087808121E0E8E828F83A388
:103F1000A3A3121E258E828F83124AAD123B131269
:103F200009D07406121BA1E9F50C7011850E82856B
:103F30000F83E0702D123B131205B68025741665B1
:103F40000C7011750C007418121BD7123F7BE480A3
:103F500010750C01124C43851282851383E8F0A37F
:103F6000E9F0850E82850F83E0600479008002A964
:103F70000C7402121BA17F0E021CCD123F7F22E0A7
:103F8000F8A3E0F58388822274EC121BFB74F7120D
:103F90001B8B8A0A8B0B8C108D11EA2405FEE435ED
:103FA0000BFF750C00AC18AD198E828F83123B1974
:103FB0001208628A088B09EA45097003024147E545
:103FC0000A2402F50A5002050B8A828B83A3A3A35D
:103FD000E0A2E5502F851882851983123B1912093A
:103FE000BE8A0C8B0DEA450D604F7912AC08AD0905
:103FF000123B13850C82850D83121BF9E9F50C60C9
:104000000302414A850A82850B83E0F508A3E0F5A7
:1040100009AA08FB1209B2EA4B70197AFF7BFF125A
:1040200009B2EA4B700302413D8A828B83E508F0B6
:10403000A3E509F07508008008750C0E02414A05D9
:10404000089002EBE0F8E508C398400302413D8583
:10405000080E750F007403780E121B788A828B830A
:10406000A3A3E0250EF8A3E0350F12451170D08E02
:10407000828F8312416512375B8E828F83A3A312D6
:104080004165123759EE2404F508E43FF509850827
:1040900082F583E088828983A3A3A3A3F0A3E4F03D
:1040A000EE2405F50EE43FF50F850E82F5831241EF
:1040B00065A3A3A3A31237597512077513007812CD
:1040C000121E0EEEFCEFFD7404121BE91215AC7407
:1040D00002121BA1E4F5127812121E0E85088285C9
:1040E0000983E0FC7D007917123B13120934740236
:1040F000121BA17407121BD712375B7407121BD750
:10410000E0FA4B603D85088285098312415C121EEE
:104110000E850E82850F83124AAD1215AC74021201
:104120001BA17402121BF1123B131205BCE960269D
:104130007407121BD7123B191216308019750C091F
:104140008008750C118003750C01124C4385108298
:10415000851183124170A90C74098028E0F5087557
:104160000900780822123B1D888289832212417639
:10417000E8F0A3E9F022E0F8A3E0F9850E82850FCC
:1041800083227404121BA17F0C021CCD74EC121B41
:10419000FB124280751000EE2402F50CE43FF50D91
:1041A000850C82F583123B191209B28A088B09EA41
:1041B00045097003024264850A82850B83E064012D
:1041C0006003024259AC08AD09AA0AAB0B1209A65A
:1041D000E9606E8508828509831234E6EE2406F5CF
:1041E0000AE43FF50B8E828F83A3A3121E258E82D5
:1041F0008F83A3A3A3A3121E25850A82850B831296
:104200001E2579188E828F83124292123B19120951
:10421000D07406121BA1E9F8741668700B850A8227
:10422000850B83E4F0A38014E860128E828F8312E2
:104230003B19850E82850F83EAF0A3EBF08810808E
:1042400018780E121E0EAC08AD09EEFAEFFB12093B
:10425000AC7402121BA1E9F510AA08AB091209B847
:10426000E510700E850C82850D83123B191205C274
:104270008009741665107003751000A9100241873B
:10428000EAFEEBFF8C0E8D0FEE2405F50AE43FF5F8
:104290000B22124D3C850C82850D832274EA121B81
:1042A000FB7508007509007E007F00750A00EC248C
:1042B00002F510E43DF5118035EC65087003ED65FD
:1042C00009600302435188828983A3A3E06A7003D3
:1042D000A3E06B707C88828983A3A3A3A3124C47BD
:1042E000EE28FEEF39FFEA28FAEB39FB050A124403
:1042F00021503A850A0C750D007403780C121B7856
:10430000851082851183124414124511601FE5083F
:10431000450970A58C088D09888289831234E48848
:10432000828983A3A3E02EFAA3E03F80BEE50AC3FF
:104330009402500302440F750800750900EE4F60A7
:1043400010EEFAEFFB12162A8A0E8B0FEA450F7059
:10435000057900024411750B000243E4850B0C75CE
:104360000D007403780C121B78851082851183E090
:10437000250CF50CA3E0350DF50DE50C2406F51420
:10438000E4350DF515851482F5831245166042E576
:104390000C2404F512E4350DF513851282F5831211
:1043A0001E25E50E2508FAE50F3509FB1215AC743C
:1043B00002121BA1851282851383E02508F508A34C
:1043C000E03509F509851482851583123B1912160B
:1043D00030E50B600D7C087D007900AA0CAB0D1256
:1043E00015C4050BE50BC3950A500302435C851009
:1043F00082851183124C4788828983A3A3A3A3A338
:10440000A3E50EF0A3E50F123077EEF0A3EFF079FD
:1044100001023F7612441822E0250CF8A3E0350D86
:10442000229002EBE0F8E50AC3982274F0121BFB1D
:104430008A0E8B0F8C0A8D0B750D00750C00805049
:104440007916EE2406F508E43FF5098E828F83A3E2
:10445000A3121E258E828F83A3A3A3A3121E2585DC
:104460000882850983121E25850E82850F83A3A3EA
:10447000123B191209D07406121BA1E9F50D74162E
:10448000650D706C850882850983E4F0A3F0050C46
:104490009002EBE0F8E50CC3985066AA0C8A087508
:1044A000090074037808121B78850A82850B83A3A0
:1044B000A3124560E8FEE9FF8E828F8312451660E5
:1044C00040EA2401F508E43400F5099002EBE065C8
:1044D000087002E509601488828983A3A3A3A3A3BB
:1044E000A3A3A3123B48600302444079180244424C
:1044F000E9609B124C437410121BD71245081241FD
:1045000070A90D7F08021CCDE0FAA3E0F5838A8232
:1045100022F988828983124D3CEC4D2274F6121BDD
:10452000FB7C0080010C900348E0F8ECC398501E1F
:104530008C0875090074027808121B78124555E042
:104540006A7003A3E06B70DDE8FAE9FB80047A008F
:104550007B000245F89002E9124560888289832237
:10456000E02508F8A3E03509F92274F2121BFB8A52
:10457000088B09750A0080278E828F83A3A3A3A3CB
:1045800012306E60031216307C087D007900EEFA5E
:10459000EFFB1215C48E828F83E4F0A3F0050A129C
:1045A00044215027850A0C750D007403780C121BEA
:1045B00078850882850983A3A3E0250CFEA3E03556
:1045C0000DFF8E828F83123B4870AD85088285096E
:1045D0008374FFF0A3F0024D3074F6121BFB120936
:1045E000648A828B83E582458370067A007B008033
:1045F00007A3A3A3A3123B197F02021CCD74F412DC
:104600001BFB89088C828D83E06402703C124BE6B0
:10461000FEA3E0F9EEF8740268700374296970294A
:10462000750A02750B00780A121E0E7410121BD741
:10463000121E257410121BD7121E25A9081212EE85
:104640007406121BA1E9F9800279010230AB74E80B
:10465000121BFB74FB121B8BE9851882851983F0F2
:104660008A168B17ECFEEDFF7510008E828F83A3E8
:10467000A3A3E0A2E4502D741D121BD7123B191204
:1046800009BE8A828B83E58245837003024A85795D
:104690000AEEFCEFFDAA16AB17121BF9E9F5106044
:1046A00003024A88741F121BD7E0F508A3E0F5093E
:1046B0007421121BD7E0F50AA3E0F50B7423121B3B
:1046C000D7E0F50EA3E0F50F8E828F83E0640260E1
:1046D00003024A26A3124C47850882850983A385D5
:1046E0008212858313EE2406F50CE43FF50D8882D3
:1046F0008983124AC5F514E439F5157814121E9809
:10470000010000280128284707000228ED47032858
:104710005B4700291C49012947490229E848032928
:104720001C490429C049264AE50E450F6003024A88
:1047300021850C82850D83124C47E8FAE9FB8A82B9
:104740008B83E0850A82850B83124AD0121E0E8A63
:10475000828B83A3E0FCA3E00249AAE50E450F602B
:1047600003024A21850A82850B837401F0124ABA3A
:10477000850882850983F07C007D008E828F83A36B
:10478000A3A3A3E02401FAA3E03400FB120862EA29
:104790004B60408A828B83E02402F8850A82850B75
:1047A00083E028F0EA2404F8E43BF988828983E076
:1047B000851282851383124ADE124AD0121E0E8A97
:1047C000828B83A3124AADE5082403FAE43509FB82
:1047D0000249AF850A82850B83E02404F07C047DC6
:1047E000007900AA12AB131215C4024A88E50E45DF
:1047F0000F6003024A21124ABAFEA3E0FF850A8233
:10480000850B837404F0EE850882850983F0EF85BB
:104810001282851383F07403121BF1EEFAEFFB1280
:1048200008628A0C8B0DEA450D70030248CB8A8220
:104830008B83A3A31234E47401121BE1880E890F49
:10484000780E121E0E7405121BD7121E257CFF7DDA
:10485000FF1208687404121BA18B0FEA450F703316
:10486000850C82850D83124AB1121E0E850C82853D
:104870000D83A3121E257C027D007A757B8A1206A9
:10488000647404121BA1E9700A7401121BD774FF2F
:10489000F0A3F08E828F83E064027039750C02758C
:1048A0000D00780C121E0E8E828F83A3124AADE586
:1048B000082404FAE43509FB1215AC7402121BA19A
:1048C000850A82850B83E0240280097401121BD7BC
:1048D000EEF0A3EFF07401121BD7124A9F7401127D
:1048E0001BD7124A96024A1BE50E450F6003024A87
:1048F00021850C82850D83124D35AA16AB17121235
:10490000F4850A82850B837402F085088285098309
:10491000EAF0851282851383EB024A1EE50E450FED
:104920006003024A21124ABAF8A3E0F9850A828597
:104930000B837402F0E8850882850983F0E985120B
:1049400082851383024A1E850C82850D83123B19D2
:104950001215A6EAFAF8C3950EE4950F405CE865D7
:104960000E450F70047A008021851882851983E036
:10497000FCE50E2CFCE4350FFDC3EC98ED940050E3
:1049800003E08005E50ECAC39AFAEA850A82850B20
:1049900083F08A0A750B00780A121E0E850C828538
:1049A0000D83E0250EFCA3E0350FFDAA08AB09122C
:1049B00015AC7402121BA1024A88751007024A88BE
:1049C000E50E450F705B850C82850D83124C478583
:1049D0000A82850B837407F088828983124A9712B2
:1049E0004A8FE0851282851383F0E82402FAE439C5
:1049F000FB8A828B83124A9F8A828B83124A96A3F8
:104A0000A3123076124AA4F0E82405F85001098870
:104A1000828983124AA4A3124ADEA3A3A3A3F0802F
:104A20006775100B8062741D121BD7123B19120997
:104A3000648A828B83E5824583604A124C47880CE6
:104A4000890DE8450D603E7425121BD7E0F51078FE
:104A500010121E12780E121E0E780A121E0E780800
:104A6000121E0E7407121BD7E0F9EEFCEFFDAA161A
:104A7000AB17850C82850D83121BF97407121BA1DD
:104A8000E9F510800375100EA9107405023DDCF0E5
:104A900088828983A322A3E0850882850983221264
:104AA0004AE5F022124AE5A3A3229002EF124D3C00
:104AB00022E0F50E750F00780E22850C82850D839D
:104AC000123F7FE022E0FAA3E0F8E4C8F9EA2822E6
:104AD000F08A828B83E0F50A750B00780A22124A6D
:104AE0008F124AE522E0850882850983A3A32274F8
:104AF000EE121BFB74FE121B8B8A088B09ECFEED79
:104B0000FF890AAC18AD19EEFAEFFB1208628A0CA5
:104B10008B0DEA450D7003024BD7851882851983EA
:104B2000123B191209648A828B83E58245837003E4
:104B3000024BD2A3A3124C47880E890FE8450F7091
:104B400003024BD27414121BD7E0F510A3E0F51149
:104B5000E50AF50B780B121E127419121BD7121EE0
:104B6000257810121E0E741B121BD7E0F9AC0CAD89
:104B70000DAA08AB09850E82850F83121BF97405F7
:104B8000121BA1E9F50B705274FE650A604C850C8E
:104B900082850D83E064027041124BE6FAA3E0F9CE
:104BA000EAF87402687003742969702E8510828592
:104BB0001183124AC5F50CE439F50D780C121E0E5E
:104BC000EEFCEFFDAA08AB091209E87402121BA162
:104BD0008008750B0E8003750B01A90B7402121B64
:104BE000A17F0A021CCDA3124C4B88828983E0224C
:104BF00074F6121BFB74FE121B8B740C121BD71263
:104C00004C47E8851882851983F07401121BD7E997
:104C1000F0E4F508F5097808121E0E750802780808
:104C2000121E0E7404121BE1880889097808121EEE
:104C30000E79FE1209D07406121BA17402121BA178
:104C40000245F88E828F83124C4B22E0F8A3E0F9E4
:104C50002274F7121BFBEAFEEBFF89089003061291
:104C60004AAD1212F4EA5402600BA908EEFAEFFB07
:104C7000120856800279017F01021CCD74F2121BCA
:104C8000FB74FE121B8BEAFEEBFF890A7401650AB6
:104C900060147402650A6003024D2B7901120BEC5B
:104CA000E96003024D2BEEFAEFFB1209B2EA4B600A
:104CB000031209B8A818A919880889097808121ECA
:104CC0000E7508027509007808121E0E75086D75BC
:104CD000098A7808121E0E7CFF7DFF7A017B001284
:104CE000085C7406121BA18038850882850983A39D
:104CF000A3A3A3A3A3124D35EEFAEFFB1212DCE43B
:104D0000F50CF50D780C121E0E7402121BD7121E34
:104D1000257CFF7DFFAA08AB091208687404121BEA
:104D2000A18A088B09E508450970BE7402121BA10F
:104D30007F06021CCD123F7F124D3C22E0FCA3E017
:104D4000FD2274F4121BFB8A088B09ECFEEDFF9028
:104D500016C4E0F4604B7A097B001215D0EA4B6070
:104D6000408A828B8374B1F0A3E4124DA4F08A824E
:104D70008B83A3A3E508F0A3E509124DA4A3EEF0ED
:104D8000A3EFF0740C121BD7124C478A828B83A3BB
:104D9000A3A3A3A3A3A31241709016C4E0F9121514
:104DA000DC0230ABF08A828B83A3A3A3A32274EE30
:104DB000121BFB74FA121B8B8A0A8B0BE9FF8C08FF
:104DC0008D097E00850A0C850B0D780C121E520091
:104DD00004108A50F64D194E384E5B4E7E4EA14E51
:104DE000D24EF54E0C4F3C4FEB4F0E5031505F50B2
:104DF0008A508A50654F74016F7019850882850941
:104E000083E0C39403500D850882850983E09018E0
:104E100019F080027E180250B274026F7015850876
:104E200082850983E0F8A3E0F990181AE8F0A3E975
:104E3000F080027E180250B274016F7019850882EA
:104E4000850983E0C39402500D850882850983E0BB
:104E500090073FF080027E180250B274016F701903
:104E6000850882850983E0C39405500D85088285F5
:104E70000983E0900740F080027E180250B274016E
:104E80006F7019850882850983E0C39402500D85EF
:104E90000882850983E0900741F080027E18025065
:104EA000B274106F7027750C10750D00780C121EFF
:104EB0000EAC08AD097A427B071215AC7402121BC6
:104EC000A18A0C8B0D850C82850D8380027E1802D1
:104ED00050B274016F7019850882850983E0C3940C
:104EE00002500D850882850983E0900752F0800208
:104EF0007E180250B274016F700D85088285098397
:104F0000E090181DF080027E180250B274046F7099
:104F1000269089EA780C121A4385088285098378DD
:104F20000C1218535011850882850983121A799042
:104F30000754121A8580027E180250B2EF702112B7
:104F400007FCE97013121282E9F50D79501217026D
:104F5000E9F50C121270800A9007E77401F08002E4
:104F60007E180250B274076F707C750E06750F00C4
:104F7000780E121E0E850882850983A3AC82AD834C
:104F80007402121BE91215B27402121BA18A108B53
:104F90001185100E85110F7C007D00AA18AB1985B4
:104FA0000882850983E0F9121216E9F50CE50CC3B5
:104FB000940A502E1207FCE97015A90C121288E908
:104FC000F50E7950121702E9F50D1212708019A82A
:104FD0000C790074E828F582740739F5837401F0C0
:104FE00080067E0280027E180250B274016F701932
:104FF000850882850983E0C39402500D8508828567
:105000000983E0900753F080027E180250B27401C9
:105010006F7019850882850983E0C3940A500D8555
:105020000882850983E090181CF080027E180250E7
:10503000B274016F7025850882850983E0C39407E7
:105040004019850882850983E0C39411500D8508B5
:1050500082850983E090181EF080577E1880537473
:10506000016F70229007E6E0F50C850882850983C0
:10507000E09007E6F0E50C70399007E6E064017017
:1050800031121270802C7E188028C3E50A9427E51F
:105090000B9400501B74026F70168508828509837B
:1050A000E0FCA3E0FDAA0AAB0B12067CE9FE80023D
:1050B0007E02EEF97406121BA17F0A021CCD74EC6D
:1050C000121BFB74DA121B8B890D8A128B138C0A4C
:1050D0008D0B743A121BD7E0F50C908964AC18ADB7
:1050E000197406121A9EAC18AD19AA12AB13A90DA9
:1050F000121216E9FEEEC3940A4003025232EEF990
:10510000121252E9FF901819E064027004740180D1
:10511000027400F5087808121E12AD0CEFFCEEF9CF
:10512000AA0AAB0B1212C47401121BA17C147D00DD
:1051300079007412121BE91215C48A0E8B0F850EAA
:1051400008850F097412121BF17A1075F006EEA48F
:105150002424F91216FCE9703C7C1079FF741212B9
:105160001BE9121624E9702D7422121BD7AC82ADF4
:10517000837A0475F006EEA42425F91216FCE9F5ED
:10518000087412121BF1EFA2E0E433F9AA0AAB0B88
:10519000120706E9F87406121BF17A0C74702EF9E6
:1051A0001216FCE970797406121BE9121246750E8C
:1051B00000E50EC394045067A80E7900E875F0036B
:1051C000A4C8AAF075F000A42AFA75F003E9A42A8D
:1051D000F97406121BD7E58228F508E58339F5092D
:1051E000850882850983E0F8A3E0F9E849602C8509
:1051F0000882850983A3A3E0F510751100781012C9
:105200001E0E850882850983E0FCA3E0FDAA0AAB97
:105210000B1209D67402121BA1E9F8050E8092EF59
:10522000A2E1500E90073EE0F9AA0AAB0B1209DC8E
:10523000E9F87404650C700F901819E064027007A7
:10524000AA0AAB0B1212BE79007426121BA17F0CA6
:10525000021CCD74F7121BFBEAFEEBFF1207FCE900
:1052600070679007E7E06401701B121282E9F5088D
:105270009007E77400F07C0A7D0079007AE87B07EC
:105280001215C48039750800E508C3940A502FA888
:1052900008790074E828F582740739F583E0640121
:1052A0007018A908121288E9FAA808790074E82889
:1052B000F582740739F5837400F0050880CA7950C7
:1052C000121702E9F5081212707F01021CCD74F268
:1052D000121BFB890BEAFEEBFF8C088D09750A0A8D
:1052E000E50B600C1460091460441460640253738D
:1052F000EEFAEFFB121264E9F50AE50AC3940A50CC
:1053000072E5084509606C750C06750D00780C1285
:105310001E0EEEFCEFFDAA08AB091215AC740212CA
:105320001BA18A0C8B0D850C82850D838045EEFABE
:10533000EFFB12125EE9F50AE50AC3940A5034E560
:10534000084509602EAA08AB09A90A121258E9807B
:1053500022EEFAEFFB12126AE9F50AE50AC3940A93
:105360005011E5084509600BAA08AB09A90A1212F9
:1053700058E9F8A90A7F06021CCD74F2121BFB8AB9
:105380000C8B0DE9FF7E1574FF650C700474FF65CE
:105390000D702A750800E508C3940A5014EFFC7AD2
:1053A000027B00A908121234E960027E0005088021
:1053B000E5EF60627AAC7B12120C108059AA0CAB3C
:1053C0000D120BE08A0A8B0B850A08850B09E5088C
:1053D000450960407C007D00E5082405FAE43509B4
:1053E000FB850882850983A3A3A3A3E0F912121603
:1053F000E9F50AE50AC3940A500EEFFC7A027B0035
:10540000A90A121234E97E00EF600BAA08AB091258
:1054100012AC80027E14EEF97F06021CCD74EE12EF
:105420001BFB8A0E8B0F8C0A8D0B7412121BD7E09C
:10543000F50CA3E0F50D75081574FF650E70047486
:10544000FF650F701E7E00EEC3940A5061AC0CAD78
:105450000DAA0AAB0BEEF912123AE96003750800C7
:105460000E80E4AA0EAB0F120BE08A108B11AE1067
:10547000AF11EE4F60357C007D00EE2405FAE43F6D
:10548000FB8E828F83A3A3A3A3E0F9121216E9F582
:1054900009E509C3940A5016AC0CAD0DAA0AAB0B72
:1054A000A90912123AE97508008003750814A908C1
:1054B0007F0A021CCD74F7121BFBEAFEEBFF90077C
:1054C00058EEF0A3EFF090073EE0FC7D007A267BDB
:1054D0000012067CE9F50890073EE0F91209407FCA
:1054E00001021CCD74F0121BFB74EC121B8B8A0C96
:1054F0008B0D850C82850D83A3A3E024FA70030233
:10550000595D24FD70030257D21470030255D41460
:10551000601024FD700302577A14700302581102C0
:105520005970AE0CAF0D900758E0F8A3E0F9E849C8
:105530006066900758E0F8A3E0F5838882E0F8A35E
:10554000E0F9E8496052EE240CF582E43FF583E08F
:10555000F5087808121E12EE240BF582E43FF5835D
:10556000E0F98E828F83A3A3A3A3A3A3A3A3A3E0A5
:10557000FCA3E0FDEE2403FAE43FFB900758E0F8BB
:10558000A3E0F5838882E0F8A3E0F5838882121B0C
:10559000F97401121BA180398E828F83A3A3A3A368
:1055A000A3A3A3A3A3121E25900754121A611207E6
:1055B000187402121BA1E9601879018E828F83A3EF
:1055C000A3A3A3A3A3A3A3A3E0FAA3E0FB12071240
:1055D000E9025970AE0CAF0D7508008E828F83A35F
:1055E000E060030256FC8E828F83A3A3A3A3A3E0F3
:1055F000A2E040030256FC9007F2E0F8A3E0F9E8CD
:105600004960030256FC7C0E7D007900AA18AB1994
:105610001215C48A0A8B0BAA0AAB0BEE240CF58276
:10562000E43FF583E0F8A3E0F9E8496036750A063F
:10563000750B00780A121E0EEE240CF582E43FF57D
:1056400083E02410FCA3E03400FD7402121BE91275
:1056500015AC7402121BA18A0A8B0B850A82850B7A
:1056600083804F8E828F83A3A3A3E0FAA3E0FB1273
:105670000BE08A0E8B0F850E0A850F0BE50A450B92
:10568000602D750E06750F00780E121E0EE50A24A9
:1056900005FCE4350BFD7402121BE91215AC740213
:1056A000121BA18A0E8B0F850E82850F8380030249
:1056B00059708E828F83A3A3A3A3A3E0A2E2500418
:1056C000D2F08002C2F0A2F0E433F87900740C1238
:1056D0001BD7E048F0A3E049F0EEFCEFFDAA18ABC1
:1056E0001912124CE970127A027B0090073EE0F921
:1056F000121600E97900025972750815900758E0F2
:10570000F8A3E0F9E849606F900758E0F8A3E0F5E6
:10571000838882A3A3E0F8A3E0F9E84960598E8268
:105720008F83A3E0FC79018E828F83A3A3A3E0FA89
:10573000A3E0FB900758E0F8A3E0F5838882A3A3D9
:10574000E0F8A3E0F5838882121BF9E5086028AC35
:105750000879038E828F83A3A3A3E0FAA3E0FB90D2
:105760000758E0F8A3E0F5838882A3A3E0F8A3E05C
:10577000F5838882121BF9025970AE0CAF0D9007A9
:1057800058E0F8A3E0F9E8496045900758E0F8A32D
:10579000E0F5838882A3A3E0F8A3E0F9E849602F4D
:1057A000850C82850D83A3E0FC79028E828F83A312
:1057B000A3A3E0FAA3E0FB900758E0F8A3E0F58389
:1057C0008882A3A3E0F8A3E0F5838882121BF90284
:1057D0005970AE0CAF0D7C007D00EE2404FAE43F5E
:1057E000FB8E828F83A3A3A3E0F9121216E9F508BA
:1057F000E508C3940A5017EE240AFCE43FFD7A043E
:1058000075F006E508A42425F91216F6E9F8025900
:1058100070AE0CAF0D900753E0601990181CE0F9C2
:105820008E828F83A3A3A3E0FAA3E0FB120712E901
:10583000F8025970901819E0701679058E828F83DE
:10584000A3A3A3E0FAA3E0FB120712E9F802597040
:105850008E828F83A3A3A3E0FAA3E0FB120BE08A5E
:105860000A8B0B850A08850B09E5084509700302B8
:1058700059708E828F83A3A3A3A3A3A3A3E0A2E066
:10588000506D850882850983A3A3A3A3E060608E81
:10589000828F83A3A3A3A3A3A3A3A3A3E0F50AA337
:1058A000E0F50B7409780A121B69E50A5401F8E562
:1058B0000B5400F9E8A2E04036740E121BF1E50823
:1058C0002405FAE43509FB850882850983A3A3A38F
:1058D000A3E0F9121216E9701679038E828F83A362
:1058E000A3A3E0FAA3E0FB120712E9F8025970EE55
:1058F0002405FCE43FFD850882850983A3A3A3A3B7
:10590000E0F98E828F83A3A3A3E0FAA3E0FB121237
:10591000B8900758E0F8A3E0F9E8496053900758B9
:10592000E0F8A3E0F5838882A3A3E0F8A3E0F9E818
:1059300049603D7C0079008E828F83A3A3A3E0FAA7
:10594000A3E0FB900758E0F8A3E0F5838882A3A3C7
:10595000E0F8A3E0F5838882121BF98013AE0CAF48
:105960000D8E828F83A3A3A3E0FAA3E0FB12121093
:1059700079017414121BA17F08021CCD74F5121B4F
:10598000FB74F2121B8B8909EAFEEBFF8C0AAC1840
:10599000AD197A0E75F006E509A42420F91216FC5B
:1059A000E9705F7C0679FFAA18AB19121624E9701A
:1059B00051740C121BD7E0F8A3E0F9E8F508E50AEA
:1059C0006005EE42088004EEF45208A808790074DD
:1059D0000C121BD7E0687003A3E0696021A8087966
:1059E00000740C121BD7E8F0A3E9F0AC18AD197ADB
:1059F0000E75F006E509A42420F91216F6E97901DE
:105A000080027900740E121BA17F03021CCD74F07A
:105A1000121BFB74E6121B8B890B8A0C8B0DECFEA0
:105A2000EDFF740C121BF17A0E75F006E50BA42441
:105A300020F91216FCE96003025B3E7C0679FF74D4
:105A40000C121BE9121624E96003025B3EAC18AD90
:105A5000197A0C7470250BF91216FCE96003025BCD
:105A60003A750A00AA18AB19121246E50C450D70DA
:105A70002E7C0C7900AA18AB19121624E9600302D7
:105A80005B207C0C7D007900AA18AB191215C48A22
:105A9000088B09850882850983750A01025B20ACA1
:105AA00018AD19AA0CAB0D1212408A0E8B0F850E81
:105AB00008850F09E50845097030EE4F601BAC18EA
:105AC000AD197A007B001212408A0E8B0FA80EA926
:105AD0000F88088909E84970047900806385088285
:105AE000850983E50CF0A3E50DF08508828509831F
:105AF000A3A3E0F87900EE687002EF696022EEC0BF
:105B0000E0850882850983A3A3D0E0F0EE4F700DF5
:105B10008508828509837400F0A37400F0750A017A
:105B2000E50A6016AA18AB19121246AC18AD197A1C
